S01E000053697374656D50656E6572616E674F746F6D617469732E7372656311
S113000046C2000065C2000063C2000061C2000075
S11300105FC200005DC200005BC2000059C2000064
S113002057C2000055C2000053C2000051C2000074
S11300304FC200004DC200000C94280B0C94550BC9
S11300400C94820B0C94AF0B0C94DC0B0C94090CE9
S11300500C94360C0C94630C0C94900C0C94BD0C06
S113006037C2000035C2000033C2000031C20000B4
S11300702FC200002DC200002BC2000029C20000C4
S113008027C2000025C2000023C2000021C20000D4
S11300901FC200001DC200001BC200000C942109F5
S11300A00C9453090C9485090C94B70911C20000EF
S11300B00FC200000DC200000BC200000C94AC0E75
S11300C00C94D90E0C94060F0C94330F0C94600FFF
S11300D00C948D0F0C94BA0F0C94E70F0C9414101D
S11300E00C944110F5C10000F3C10000F1C10000FF
S11300F0EFC10000EDC10000EBC10000E9C1000048
S1130100E7C10000E5C10000E3C10000E1C1000057
S1130110DFC10000DDC10000DBC10000CAC7000070
S1130120FAC700000C94BD080C94EF08D1C100007C
S1130130CFC100000C94EA0C0C94170D0C94440DE0
S11301400C94710D0C949E0D0C94CB0D0C94F80D25
S11301500C94250E0C94520E0C947F0EB9C1000021
S1130160B7C10000B5C10000B3C10000B1C10000B7
S1130170AFC10000ADC10000ABC10000A9C10000C7
S1130180A7C10000A5C10000A3C10000A1C10000D7
S11301909FC100009DC100009BC1000099C10000E7
S11301A097C1000095C1000093C1000091C10000F7
S11301B00C946E100C949B100C94C8100C94F510B5
S11301C00C9422110C944F1183C1000081C10000D2
S11301D07FC100007DC100007BC1000079C1000027
S11301E077C1000075C1000073C1000071C1000037
S11301F06FC100006DC100006BC100000000000071
S1130200000000202020202000205050500000003A
S1130210005050F850F850502078A07028F020C0BA
S1130220C810204098186090A040A89068602040B2
S1130230000000001020404040201040201010100A
S11302402040005020F8205000002020F8202000FA
S113025000000000602040000000F80000000000E2
S1130260000000606000081020408000708898A89A
S1130270C8887020602020202070708808102040DA
S1130280F8F810201008887010305090F81010F80A
S113029080F008088870304080F0888870F8081072
S11302A020404040708888708888707088887808FA
S11302B010600060600060600000606000602040CA
S11302C0081020402010080000F800F800008040CA
S11302D02010204080708808102000207088086852
S11302E0A8A87070888888F88888F08888F088883A
S11302F0F070888080808870E09088888890E0F82A
S11303008080F08080F8F88080E080808070888031
S113031080988870888888F88888887020202020B1
S11303202070381010101090608890A0C0A09088A1
S1130330808080808080F888D8A888888888888889
S1130340C8A898888870888888888870F08888F019
S113035080808070888888A89068F08888F0A09051
S113036088788080700808F0F820202020202088D9
S113037088888888887088888888885020888888B1
S1130380A8A8D88888885020508888888850202039
S11303902020F80810204080F83820202020203821
S11303A000804020100800E02020202020E0205081
S11303B08800000000000000000000F84020100049
S11303C0000000000070087888788080B0C88888B1
S11303D0F000007080808870080868988888780029
S11303E0007088F88070304840E040404000007859
S11303F0887808308080B0C88888882000602020F1
S113040020701000301010906040404850605048F8
S1130410602020202020700000D0A8A88888000038
S1130420B0C8888888000070888888700000F088C8
S1130430F08080000068987808080000B0C88080C8
S113044080000070807008F04040E0404048300078
S11304500088888898680000888888502000008870
S113046088A8A85000008850205088000088887808
S113047008700000F8102040F810202040202010C0
S11304802020202020202040202010202040112443
S11304901FBECFEFCDBFDFE5DEBF00E00CBF10E233
S11304A0A0E0B0E2E0EDF0E300E00BBF02C0079093
S11304B00D92AA34B107D9F723E2AAE4B0E201C04D
S11304C01D92A232B207E1F70E94CA140C94661876
S11304D097CD04C0615071098109910961157105B5
S11304E081059105B9F70895BF92CF92DF92EF92FB
S11304F0FF920F931F93CF93DF931F92CDB7DEB775
S113050000E016E06894FF24F3F8F801F68264E052
S113051070E080E090E0DDDFF801F58264E070E0F7
S113052080E090E0D6DF0F2EFBE2BF2EF02DB982E3
S113053080EA99E043D4C12CD12C760100E412E482
S11305402FE030E043E0BE016F5F7F4F80EA99E027
S113055064D400E616E0FF24F394F801F682B9822D
S1130560BE016F5F7F4F80EA99E072D4F801F68292
S1130570E0EAF9E0818185FFFDCF80EA8093A0095C
S1130580E0EAF9E0818186FFFDCFE0EAF9E080E46A
S113059081838081BE016F5F7F4F80EA99E06ED4D2
S11305A08BE28983BE016F5F7F4F80EA99E050D46C
S11305B081E080936606E0EAF9E0818185FFFDCF62
S11305C086EA8093A009E0EAF9E0818186FFFDCF05
S11305D0E0EAF9E080E481838081BE016F5F7F4FB0
S11305E080EA99E04BD48BE28983BE016F5F7F4F31
S11305F080EA99E02DD481E080936606E0EAF9E090
S1130600818185FFFDCF88EC8093A009E0EAF9E0C1
S1130610818186FFFDCFE0EAF9E080E48183808177
S1130620BE016F5F7F4F80EA99E028D48BE2898313
S1130630BE016F5F7F4F80EA99E00AD481E0809326
S11306406606E0EAF9E0818185FFFDCF82EA8093C6
S1130650A009E0EAF9E0818186FFFDCFE0EAF9E054
S113066080E481838081BE016F5F7F4F80EA99E0DF
S113067005D48BE28983BE016F5F7F4F80EA99E0E6
S1130680E7D381E080936606E0EAF9E0818185FFA3
S1130690FDCF8FE28093A009E0EAF9E0818186FF33
S11306A0FDCFE0EAF9E080E481838081BE016F5FE1
S11306B07F4F80EA99E0E2D38BE28983BE016F5FCA
S11306C07F4F80EA99E0C4D381E080936606E0EA34
S11306D0F9E0818185FFFDCF88EF8093A009E0EAEE
S11306E0F9E0818186FFFDCFE0EAF9E080E48183CF
S11306F08081BE016F5F7F4F80EA99E0BFD38BE2B8
S11307008983BE016F5F7F4F80EA99E0A1D381E0C6
S113071080936606E0EAF9E0818185FFFDCF1092BF
S1130720A009E0EAF9E0818186FFFDCFE0EAF9E083
S113073080E481838081BE016F5F7F4F80EA99E00E
S11307409DD38BE28983BE016F5F7F4F80EA99E07E
S11307507FD381E080936606E0EAF9E0818185FF3A
S1130760FDCF81E28093A009E0EAF9E0818186FF70
S1130770FDCFE0EAF9E080E481838081BE016F5F10
S11307807F4F80EA99E07AD38BE28983BE016F5F61
S11307907F4F80EA99E05CD381E080936606E0EACB
S11307A0F9E0818185FFFDCF81E88093A009E0EA2B
S11307B0F9E0818186FFFDCFE0EAF9E080E48183FE
S11307C08081BE016F5F7F4F80EA99E057D38BE24F
S11307D08983BE016F5F7F4F80EA99E039D381E05E
S11307E080936606E0EAF9E0818185FFFDCF81E22E
S11307F08093A009E0EAF9E0818186FFFDCFE0EA79
S1130800F9E080E481838081BE016F5F7F4F80EADD
S113081099E034D38BE28983BE016F5F7F4F80EA16
S113082099E016D381E080936606E0EAF9E08181DD
S113083085FFFDCF8FEA8093A009E0EAF9E081818A
S113084086FFFDCFE0EAF9E080E481838081BE0188
S11308506F5F7F4F80EA99E011D30F90DF91CF91C2
S11308601F910F91FF90EF90DF90CF90BF9008956C
S11308708FEF809370008093710080937200809357
S113088073008093740080937500809376000895BC
S1130890CF93DF931F92CDB7DEB79FB79983F894B8
S11308A09981E82FF0E0E059FF4F6095808168233B
S11308B060839FBF0F90DF91CF910895CF93DF9313
S11308C01F92CDB7DEB79FB79983F8949981E82F2B
S11308D0F0E0E059FF4F8081682B60839FBF0F9049
S11308E0DF91CF910895FF920F931F93CF93DF93DE
S11308F01F92CDB7DEB7082FF62E142F1AD10F7022
S1130900006B8BE28983BE016F5F7F4F80EA99E0C1
S11309109FD281E080936606E0EAF9E0918195FF39
S1130920FDCF0093A009E0EAF9E0818186FFFDCFC5
S1130930E0EAF9E080E481838081BE016F5F7F4F4C
S113094080EA99E09BD20F2D0F7702950F7000611A
S11309508BE28983BE016F5F7F4F80EA99E078D292
S113096081E080936606E0EAF9E0818185FFFDCFAE
S11309700093A009E0EAF9E0818186FFFDCFE0EA77
S1130980F9E080E481838081BE016F5F7F4F80EA5C
S113099099E074D20F2D0F708BE28983BE016F5FD3
S11309A07F4F80EA99E054D281E080936606E0EAC2
S11309B0F9E0818185FFFDCF0093A009E0EAF9E029
S11309C0818186FFFDCFE0EAF9E080E481838081C4
S11309D0BE016F5F7F4F80EA99E050D28BE289833A
S11309E0BE016F5F7F4F80EA99E032D281E080934D
S11309F06506E0EAF9E0818185FFFDCF1093A00947
S1130A00E0EAF9E0818186FFFDCFE0EAF9E080E4E5
S1130A108183808181E080936606BE016F5F7F4F92
S1130A2080EA99E02BD20F90DF91CF911F910F9123
S1130A30FF9008950F931F93CF93DF931F92CDB729
S1130A40DEB78AE490E270D04FDD8BE28983BE0189
S1130A506F5F7F4F80EA99E0FBD181E08093660667
S1130A60E0EAF9E0818185FFFDCF80E48093A0096D
S1130A70E0EAF9E0818186FFFDCFE0EAF9E080E475
S1130A8081838081BE016F5F7F4F80EA99E0F6D158
S1130A9000E00AC040E0612F802F25DF1F5F10387F
S1130AA0C9F70F5F043011F010E0F4CF0F90DF911D
S1130AB0CF911F910F910895FF920F931F93CF939E
S1130AC0DF9388234CF1603238F5D42FC82FF62EEB
S1130AD0F694F694F69470E088E0F89E6019710933
S1130AE0112481E090E08C0102C0000F111F6A956F
S1130AF0E2F76C2F8F2D2BD0D13021F028F0D2309B
S1130B0031F006C0802B04C00095802301C08027EB
S1130B10482F6C2F8F2DE7DEDF91CF911F910F911E
S1130B20FF90089514C0089580934A2290934B2215
S1130B30089520914A2230914B2290E8899F200DFC
S1130B40311D1124F901E60FF11D40830895209110
S1130B504A2230914B2290E8899F200D311D1124A7
S1130B60F901E60FF11D80810895FF920F931F9301
S1130B70CF93DF93E42FF0E0E80FF11DE138F105A6
S1130B801CF0C0E84C2F481B442309F44AC0D62F5C
S1130B90D695D695D69570E098E0D99F60197109DD
S1130BA01124E1E0F0E0DF0102C0AA0FBB1F6A9547
S1130BB0E2F7FA2E213021F098F0223019F131C0F9
S1130BC0C42F1FEF180F012F0C0F602F8D2FAADFDA
S1130BD04F2D482B602F8D2F86DEC150A1F721C0E9
S1130BE0C42F1FEF180FFA2EF094012F0C0F602F53
S1130BF08D2F98DF4F2D4823602F8D2F74DEC15029
S1130C00A1F70FC0C42F1FEF180F012F0C0F602F77
S1130C108D2F88DF4F2D4827602F8D2F64DEC15024
S1130C20A1F7DF91CF911F910F91FF900895FF924B
S1130C300F931F93CF93DF93222369F0F42E182F81
S1130C40C22FDFEFD60F6D2F6C0F202F4F2D812F6A
S1130C508CDFC150C1F7DF91CF911F910F91FF90AD
S1130C600895AF92BF92CF92DF92EF92FF920F93CB
S1130C701F93CF93DF93C82FE62EB42E690100E0B3
S1130C80F901248143816B2D8E2DD1DFF601808102
S1130C90811139C08381282F269526952695877042
S1130CA009F02F5FF601A4808C2F90E03581831B1F
S1130CB091092A9D90011124829FA001839F500DC8
S1130CC0929F500D112401811281040F151FF6010A
S1130CD0F380FF20A1F0D0E0C0E08E2D8C0F9C2F7C
S1130CE0977021F4F801D4910F5F1F4FDD231CF49A
S1130CF041E06B2DE1DEDD0FCF5FFC12EECFB3944C
S1130D00AA94A110E4CFDF91CF911F910F91FF908E
S1130D10EF90DF90CF90BF90AF900895DF92EF9265
S1130D20FF920F931F93CF93DF93D62E042F790155
S1130D30EC01162F89918A3031F4F70184818F5F99
S1130D40080F1D2D09C08D3039F09701402F612FF8
S1130D5088DFF7018381180F88818111EBCFDF9140
S1130D60CF911F910F91FF90EF90DF900895CF9353
S1130D70DF93FC0120E030E0C62FD0E0DE01022E3C
S1130D8002C0B595A7950A94E2F7A0FD508B2F5F9A
S1130D903F4F31962830310589F740FF0AC041FFA3
S1130DA003C0FC01658302C0FC016683FC0161830E
S1130DB002C0FC016283DF91CF910895803A28E05C
S1130DC0920721F460E183E063CD0895803B28E03D
S1130DD0920721F460E283E05BCD0895803A29E034
S1130DE0920721F460E184E053CD0895803B29E02B
S1130DF0920721F460E284E04BCD0895803A2AE022
S1130E00920721F460E185E043CD0895803A9B4048
S1130E1019F460E186E03CCD08950F931F93CF93BE
S1130E20DF9300D000D0CDB7DEB709831A832B83BC
S1130E303C834D831E82BE016F5F7F4F0E946A1206
S1130E402696CDBFDEBFDF91CF911F910F910895FC
S1130E50FB018081E82FE695E695E69540E2E49F64
S1130E60F0011124FA5F877021E030E0A90102C08B
S1130E70440F551F8A95E2F746830895FB0180814C
S1130E80E82FE695E695E69540E2E49FF00111240B
S1130E90FA5F877021E030E0A90102C0440F551FBA
S1130EA08A95E2F74583089543E050E061E080EEDF
S1130EB097E05DDF43E050E062E080EE97E057DFCB
S1130EC043E050E060E180E696E051DF41E050E429
S1130ED060E280E696E04BDF40E05BE160E280E8C0
S1130EE096E045DF40E05BE162E080EA96E03FDFC8
S1130EF040E05BE164E080EA96E039DF43E050E003
S1130F0062E080E696E033DF43E050E068E080E6AC
S1130F1096E02DDF43E050E068E080EA96E027DFCA
S1130F2043E050E061E080E696E021DF43E050E0FA
S1130F3068E080E096E01BDF41E050E060E180E89B
S1130F4096E015DF43E050E062E080E696E00FDFD4
S1130F5043E050E068E080E696E009DF40E050E0DE
S1130F6064E080E696E003DF43E050E060E180EA7D
S1130F7096E0FDDE40E050E061E080E096E0F7DEE0
S1130F8040E050E064E080E096E0F1DE40E050E0D4
S1130F9062E080E296E0EBDE43E050E068E080E46B
S1130FA096E0E5DE40E050E064E080E496E0DFDED9
S1130FB043E050E068E080E696E0D9DE40E050E0AF
S1130FC064E080E696E0D3DE43E050E068E080E849
S1130FD096E0CDDE40E050E064E080E896E0C7CEE5
S1130FE00895811522E0920761F480914D2291E0E9
S1130FF0980F90934D22811112C062E081E048CC99
S113100008958034924059F480914C2291E0980FD5
S113101090934C22811103C062E082E039CC0895A0
S1131020811522E0920759F480914D2281508093DA
S11310304D22811111C062E081E040CC08958034DA
S1131040924051F480914C22815080934C22811122
S113105003C062E082E032CC0895EF92FF921F93C6
S1131060CF93DF931F921F92CDB7DEB77C018FB76A
S11310708983F8941981C701B4DFF7018081816005
S113108080831FBF809119238F3F09F4FFCF8FB74F
S11310908A83F8949A81E8E1F3E281818F5F818306
S11310A09FBF0F900F90DF91CF911F91FF90EF9012
S11310B008951F920F920FB60F9211240BB60F9240
S11310C02F933F934F935F936F937F938F939F934C
S11310D0AF93BF93EF93FF93409124025091250265
S11310E0E0912023F091212361E080E092E01995C2
S11310F0FF91EF91BF91AF919F918F917F916F91EC
S11311005F914F913F912F910F900BBE0F900FBEA7
S11311100F901F9018951F920F920FB60F921124E3
S11311200BB60F922F933F934F935F936F937F93DD
S11311308F939F93AF93BF93EF93FF9340912C02B0
S113114050912D02E0912023F091212362E080E070
S113115092E01995FF91EF91BF91AF919F918F917B
S11311607F916F915F914F913F912F910F900BBEA3
S11311700F900FBE0F901F9018951F920F920FB6ED
S11311800F9211240BB60F922F933F934F935F93BB
S11311906F937F938F939F93AF93BF93EF93FF933B
S11311A04091340250913502E0912023F0912123A3
S11311B064E080E092E01995FF91EF91BF91AF91C7
S11311C09F918F917F916F915F914F913F912F915B
S11311D00F900BBE0F900FBE0F901F9018951F928B
S11311E00F920FB60F9211240BB60F922F933F93C9
S11311F04F935F936F937F938F939F93AF93BF931B
S1131200EF93FF9340913C0250913D02E0912023E3
S1131210F091212368E080E092E01995FF91EF912D
S1131220BF91AF919F918F917F916F915F914F91FA
S11312303F912F910F900BBE0F900FBE0F901F90F8
S113124018951F920F920FB60F9211240BB60F929E
S11312502F933F934F935F936F937F938F939F93BA
S1131260AF93BF93EF93FF93409164025091650253
S1131270E0911E23F0911F2361E080E492E0199530
S1131280FF91EF91BF91AF919F918F917F916F915A
S11312905F914F913F912F910F900BBE0F900FBE16
S11312A00F901F9018951F920F920FB60F92112452
S11312B00BB60F922F933F934F935F936F937F934C
S11312C08F939F93AF93BF93EF93FF9340916C02DF
S11312D050916D02E0911E23F0911F2362E080E49F
S11312E092E01995FF91EF91BF91AF919F918F91EA
S11312F07F916F915F914F913F912F910F900BBE12
S11313000F900FBE0F901F9018951F920F920FB65B
S11313100F9211240BB60F922F933F934F935F9329
S11313206F937F938F939F93AF93BF93EF93FF93A9
S11313304091740250917502E0911E23F0911F2395
S113134064E080E492E01995FF91EF91BF91AF9131
S11313509F918F917F916F915F914F913F912F91C9
S11313600F900BBE0F900FBE0F901F9018951F92F9
S11313700F920FB60F9211240BB60F922F933F9337
S11313804F935F936F937F938F939F93AF93BF9389
S1131390EF93FF9340917C0250917D02E0911E23D4
S11313A0F0911F2368E080E492E01995FF91EF919A
S11313B0BF91AF919F918F917F916F915F914F9169
S11313C03F912F910F900BBE0F900FBE0F901F9067
S11313D01895BF92CF92DF92EF92FF920F931F93D3
S11313E0CF93DF931F92CDB7DEB78C017B018115BC
S11313F022E0920771F461E270E082E01FD1C82E0E
S1131400D12C60E270E082E019D1DC2CCC24C82A13
S113141010C080349240C1F565E270E082E00ED1E4
S1131420C82ED12C64E270E082E008D1DC2CCC24FC
S1131430C82A8FB78983F894B980C801D2DDF8012E
S1131440808192E09083C486D586F7012581368118
S1131450F801208F318FF7019281F8019283F7010F
S11314609481F8019483F7019381F8019383F70140
S11314709181F80191838170F7019081892BF801A2
S11314808083C801CDDDBFBE0F90DF91CF911F9146
S11314900F91FF90EF90DF90CF90BF900895DF926F
S11314A0EF92FF920F931F93CF93DF931F92CDB7C9
S11314B0DEB78C017B018FB78983F894D980C8018A
S11314C090DDF8018081807CF7018083F801808DB4
S11314D0918DF70185839683F8018281F7018283D8
S11314E0F8018481F7018483F8018381F701838300
S11314F0F8018181F7018183C80192DDDFBE0F907D
S1131500DF91CF911F910F91FF90EF90DF9008959D
S1131510AF92BF92CF92DF92EF92FF920F931F93FD
S1131520CF93DF931F92CDB7DEB76C01B62E7A014D
S1131530862F837029F4962F9695969582E002C0A3
S1131540962F80E090FF8F5F8601005E1F4F98E02A
S1131550899F000D111D11248FB78983F894A980E8
S1131560C6013FDDF7018081F8018083F7018281A4
S1131570F8018283F7018181F8018183B0FE04C000
S1131580F7018381F8018683C6014ADDAFBE0F905F
S1131590DF91CF911F910F91FF90EF90DF90CF904B
S11315A0BF90AF900895AF92BF92CF92DF92EF9227
S11315B0FF920F931F93CF93DF931F92CDB7DEB7A4
S11315C06C01B62E7A01862F837029F4962F969596
S11315D0969582E002C0962F80E090FF8F5F86018F
S11315E0005E1F4F98E0899F000D111D11248FB7D5
S11315F08983F894A980C601F4DCF8018081F7019D
S11316008083F8018281F7018283F8018181F701E7
S11316108183B0FE04C0F8018681F7018383C6018B
S1131620FFDCAFBE0F90DF91CF911F910F91FF9020
S1131630EF90DF90CF90BF90AF9008954091CA0192
S1131640E62FF72F8093CA0184914093CA0108952D
S11316501F920F920FB60F9211240BB60F922F9375
S11316603F934F935F936F937F938F939F93AF9326
S1131670BF93EF93FF93E0919422F09195223097DA
S113168009F01995FF91EF91BF91AF919F918F91BF
S11316907F916F915F914F913F912F910F900BBE6E
S11316A00F900FBE0F901F9018951F920F920FB6B8
S11316B00F9211240BB60F922F933F934F935F9386
S11316C06F937F938F939F93AF93BF93EF93FF9306
S11316D0E0919222F0919322309709F01995FF91AD
S11316E0EF91BF91AF919F918F917F916F915F9196
S11316F04F913F912F910F900BBE0F900FBE0F9003
S11317001F9018951F920F920FB60F9211240BB6CB
S11317100F922F933F934F935F936F937F938F9386
S11317209F93AF93BF93EF93FF93E0919022F09137
S11317309122309709F01995FF91EF91BF91AF91E4
S11317409F918F917F916F915F914F913F912F91D5
S11317500F900BBE0F900FBE0F901F9018951F9205
S11317600F920FB60F9211240BB60F922F933F9343
S11317704F935F936F937F938F939F93AF93BF9395
S1131780EF93FF93E0918E22F0918F22309709F02E
S11317901995FF91EF91BF91AF919F918F917F9197
S11317A06F915F914F913F912F910F900BBE0F90CE
S11317B00FBE0F901F9018951F920F920FB60F92A5
S11317C011240BB60F922F933F934F935F936F9314
S11317D07F938F939F93AF93BF93EF93FF93E09186
S11317E08C22F0918D22309709F01995FF91EF9199
S11317F0BF91AF919F918F917F916F915F914F9125
S11318003F912F910F900BBE0F900FBE0F901F9022
S113181018951F920F920FB60F9211240BB60F92C8
S11318202F933F934F935F936F937F938F939F93E4
S1131830AF93BF93EF93FF93E0918A22F0918B22B1
S1131840309709F01995FF91EF91BF91AF919F9156
S11318508F917F916F915F914F913F912F910F9055
S11318600BBE0F900FBE0F901F9018951F920F92F2
S11318700FB60F9211240BB60F922F933F934F93F1
S11318805F936F937F938F939F93AF93BF93EF93E4
S1131890FF93E0918822F0918922309709F01995FD
S11318A0FF91EF91BF91AF919F918F917F916F9134
S11318B05F914F913F912F910F900BBE0F900FBEF0
S11318C00F901F9018951F920F920FB60F9211242C
S11318D00BB60F922F933F934F935F936F937F9326
S11318E08F939F93AF93BF93EF93FF93E0918622DF
S11318F0F0918722309709F01995FF91EF91BF91EC
S1131900AF919F918F917F916F915F914F913F9193
S11319102F910F900BBE0F900FBE0F901F90189534
S11319201F920F920FB60F9211240BB60F922F93A2
S11319303F934F935F936F937F938F939F93AF9353
S1131940BF93EF93FF93E0918422F0918522309727
S113195009F01995FF91EF91BF91AF919F918F91EC
S11319607F916F915F914F913F912F910F900BBE9B
S11319700F900FBE0F901F9018951F920F920FB6E5
S11319800F9211240BB60F922F933F934F935F93B3
S11319906F937F938F939F93AF93BF93EF93FF9333
S11319A0E0918222F0918322309709F01995FF91FA
S11319B0EF91BF91AF919F918F917F916F915F91C3
S11319C04F913F912F910F900BBE0F900FBE0F9030
S11319D01F9018951F920F920FB60F9211240BB6F9
S11319E00F922F933F934F935F936F937F938F93B4
S11319F09F93AF93BF93EF93FF93E0918022F09175
S1131A008122309709F01995FF91EF91BF91AF9121
S1131A109F918F917F916F915F914F913F912F9102
S1131A200F900BBE0F900FBE0F901F9018951F9232
S1131A300F920FB60F9211240BB60F922F933F9370
S1131A404F935F936F937F938F939F93AF93BF93C2
S1131A50EF93FF93E0917E22F0917F22309709F07B
S1131A601995FF91EF91BF91AF919F918F917F91C4
S1131A706F915F914F913F912F910F900BBE0F90FB
S1131A800FBE0F901F9018951F920F920FB60F92D2
S1131A9011240BB60F922F933F934F935F936F9341
S1131AA07F938F939F93AF93BF93EF93FF93E091B3
S1131AB07C22F0917D22309709F01995FF91EF91E6
S1131AC0BF91AF919F918F917F916F915F914F9152
S1131AD03F912F910F900BBE0F900FBE0F901F9050
S1131AE018951F920F920FB60F9211240BB60F92F6
S1131AF02F933F934F935F936F937F938F939F9312
S1131B00AF93BF93EF93FF93E0917A22F0917B22FE
S1131B10309709F01995FF91EF91BF91AF919F9183
S1131B208F917F916F915F914F913F912F910F9082
S1131B300BBE0F900FBE0F901F9018951F920F921F
S1131B400FB60F9211240BB60F922F933F934F931E
S1131B505F936F937F938F939F93AF93BF93EF9311
S1131B60FF93E0917822F0917922309709F019954A
S1131B70FF91EF91BF91AF919F918F917F916F9161
S1131B805F914F913F912F910F900BBE0F900FBE1D
S1131B900F901F9018951F920F920FB60F92112459
S1131BA00BB60F922F933F934F935F936F937F9353
S1131BB08F939F93AF93BF93EF93FF93E09176221C
S1131BC0F0917722309709F01995FF91EF91BF9129
S1131BD0AF919F918F917F916F915F914F913F91C1
S1131BE02F910F900BBE0F900FBE0F901F90189562
S1131BF01F920F920FB60F9211240BB60F922F93D0
S1131C003F934F935F936F937F938F939F93AF9380
S1131C10BF93EF93FF93E0917422F0917522309774
S1131C2009F01995FF91EF91BF91AF919F918F9119
S1131C307F916F915F914F913F912F910F900BBEC8
S1131C400F900FBE0F901F9018951F920F920FB612
S1131C500F9211240BB60F922F933F934F935F93E0
S1131C606F937F938F939F93AF93BF93EF93FF9360
S1131C70E0917222F0917322309709F01995FF9147
S1131C80EF91BF91AF919F918F917F916F915F91F0
S1131C904F913F912F910F900BBE0F900FBE0F905D
S1131CA01F9018951F920F920FB60F9211240BB626
S1131CB00F922F933F934F935F936F937F938F93E1
S1131CC09F93AF93BF93EF93FF93E0917022F091B2
S1131CD07122309709F01995FF91EF91BF91AF915F
S1131CE09F918F917F916F915F914F913F912F9130
S1131CF00F900BBE0F900FBE0F901F9018951F9260
S1131D000F920FB60F9211240BB60F922F933F939D
S1131D104F935F936F937F938F939F93AF93BF93EF
S1131D20EF93FF93E0916E22F0916F22309709F0C8
S1131D301995FF91EF91BF91AF919F918F917F91F1
S1131D406F915F914F913F912F910F900BBE0F9028
S1131D500FBE0F901F9018951F920F920FB60F92FF
S1131D6011240BB60F922F933F934F935F936F936E
S1131D707F938F939F93AF93BF93EF93FF93E091E0
S1131D806C22F0916D22309709F01995FF91EF9133
S1131D90BF91AF919F918F917F916F915F914F917F
S1131DA03F912F910F900BBE0F900FBE0F901F907D
S1131DB018951F920F920FB60F9211240BB60F9223
S1131DC02F933F934F935F936F937F938F939F933F
S1131DD0AF93BF93EF93FF93E0916A22F0916B224C
S1131DE0309709F01995FF91EF91BF91AF919F91B1
S1131DF08F917F916F915F914F913F912F910F90B0
S1131E000BBE0F900FBE0F901F9018951F920F924C
S1131E100FB60F9211240BB60F922F933F934F934B
S1131E205F936F937F938F939F93AF93BF93EF933E
S1131E30FF93E0916822F0916922309709F0199597
S1131E40FF91EF91BF91AF919F918F917F916F918E
S1131E505F914F913F912F910F900BBE0F900FBE4A
S1131E600F901F9018951F920F920FB60F92112486
S1131E700BB60F922F933F934F935F936F937F9380
S1131E808F939F93AF93BF93EF93FF93E091662259
S1131E90F0916722309709F01995FF91EF91BF9166
S1131EA0AF919F918F917F916F915F914F913F91EE
S1131EB02F910F900BBE0F900FBE0F901F9018958F
S1131EC01F920F920FB60F9211240BB60F922F93FD
S1131ED03F934F935F936F937F938F939F93AF93AE
S1131EE0BF93EF93FF93E0916422F09165223097C2
S1131EF009F01995FF91EF91BF91AF919F918F9147
S1131F007F916F915F914F913F912F910F900BBEF5
S1131F100F900FBE0F901F9018951F920F920FB63F
S1131F200F9211240BB60F922F933F934F935F930D
S1131F306F937F938F939F93AF93BF93EF93FF938D
S1131F40E0916222F0916322309709F01995FF9194
S1131F50EF91BF91AF919F918F917F916F915F911D
S1131F604F913F912F910F900BBE0F900FBE0F908A
S1131F701F9018951F920F920FB60F9211240BB653
S1131F800F922F933F934F935F936F937F938F930E
S1131F909F93AF93BF93EF93FF93E0916022F091EF
S1131FA06122309709F01995FF91EF91BF91AF919C
S1131FB09F918F917F916F915F914F913F912F915D
S1131FC00F900BBE0F900FBE0F901F9018951F928D
S1131FD00F920FB60F9211240BB60F922F933F93CB
S1131FE04F935F936F937F938F939F93AF93BF931D
S1131FF0EF93FF93E0915E22F0915F22309709F016
S11320001995FF91EF91BF91AF919F918F917F911E
S11320106F915F914F913F912F910F900BBE0F9055
S11320200FBE0F901F9018951F920F920FB60F922C
S113203011240BB60F922F933F934F935F936F939B
S11320407F938F939F93AF93BF93EF93FF93E0910D
S11320505C22F0915D22309709F01995FF91EF9180
S1132060BF91AF919F918F917F916F915F914F91AC
S11320703F912F910F900BBE0F900FBE0F901F90AA
S113208018951F920F920FB60F9211240BB60F9250
S11320902F933F934F935F936F937F938F939F936C
S11320A0AF93BF93EF93FF93E0915A22F0915B2299
S11320B0309709F01995FF91EF91BF91AF919F91DE
S11320C08F917F916F915F914F913F912F910F90DD
S11320D00BBE0F900FBE0F901F9018951F920F927A
S11320E00FB60F9211240BB60F922F933F934F9379
S11320F05F936F937F938F939F93AF93BF93EF936C
S1132100FF93E0915822F0915922309709F01995E4
S1132110FF91EF91BF91AF919F918F917F916F91BB
S11321205F914F913F912F910F900BBE0F900FBE77
S11321300F901F9018951F920F920FB60F921124B3
S11321400BB60F922F933F934F935F936F937F93AD
S11321508F939F93AF93BF93EF93FF93E091562296
S1132160F0915722309709F01995FF91EF91BF91A3
S1132170AF919F918F917F916F915F914F913F911B
S11321802F910F900BBE0F900FBE0F901F901895BC
S11321901F920F920FB60F9211240BB60F922F932A
S11321A03F934F935F936F937F938F939F93AF93DB
S11321B0BF93EF93FF93E0915422F091552230970F
S11321C009F01995FF91EF91BF91AF919F918F9174
S11321D07F916F915F914F913F912F910F900BBE23
S11321E00F900FBE0F901F9018951F920F920FB66D
S11321F00F9211240BB60F922F933F934F935F933B
S11322006F937F938F939F93AF93BF93EF93FF93BA
S1132210E0915222F0915322309709F01995FF91E1
S1132220EF91BF91AF919F918F917F916F915F914A
S11322304F913F912F910F900BBE0F900FBE0F90B7
S11322401F9018951F920F920FB60F9211240BB680
S11322500F922F933F934F935F936F937F938F933B
S11322609F93AF93BF93EF93FF93E0915022F0912C
S11322705122309709F01995FF91EF91BF91AF91D9
S11322809F918F917F916F915F914F913F912F918A
S11322900F900BBE0F900FBE0F901F9018951F92BA
S11322A00F920FB60F9211240BB60F922F933F93F8
S11322B04F935F936F937F938F939F93AF93BF934A
S11322C0EF93FF93E0914E22F0914F22309709F063
S11322D01995FF91EF91BF91AF919F918F917F914C
S11322E06F915F914F913F912F910F900BBE0F9083
S11322F00FBE0F901F9018951F93CF93DF931F92DB
S11323001F92CDB7DEB72FB72A83F8941A81282FEE
S1132310392F211588E0380749F461E083E00E94F1
S1132320480464E083E00E9448044FC0203488E0FD
S1132330380749F462E083E00E94480464E083E0E3
S11323400E94480442C0211589E0380749F461E03D
S113235084E00E94480464E084E00E94480435C09C
S1132360203489E0380749F462E084E00E9448049C
S113237064E084E00E94480428C021158AE03807FC
S113238049F461E085E00E94480464E085E00E942D
S113239048041BC020348AE0380749F462E085E031
S11323A00E94480464E085E00E9448040EC02115A0
S11323B03B4049F461E086E00E94480464E086E022
S11323C00E94480402C01FBF10C0809119238F3F90
S11323D009F4FFCF8FB78983F8949981E8E1F3E298
S11323E081818F5F81839FBF1FBF0F900F90DF910B
S11323F0CF911F910895811528E0920729F46093E5
S11324009422709395220895803428E0920729F449
S113241060938822709389220895811529E0920798
S113242029F460938022709381220895803429E0F6
S1132430920729F46093742270937522089581158C
S11324402AE0920729F460936C2270936D22089518
S113245080342AE0920729F4609360227093612209
S1132460089581159B4021F460935822709359225A
S11324700895CF92DF92EF92FF920F931F93CF9321
S1132480DF93EC01D901C801B695A7959795879577
S1132490481759076A077B0770F46A017B01CC0C63
S11324A0DD1CEE1CFF1CC901B801A70196010FD366
S11324B02150310902C020E030E0832F8F708F83D8
S11324C02E83DF91CF911F910F91FF90EF90DF90BA
S11324D0CF900895DF92EF92FF920F931F93CF93C3
S11324E0DF931F92CDB7DEB77C018B01009709F40F
S11324F0CFC1803C910529F460E180E00E9448044A
S1132500C7C180E8E81681E0F80629F462E080E0BB
S11325100E944804BDC1E114E1E0FE0629F461E033
S113252080E00E944804B4C1F0E8EF16F3E0FF062F
S113253029F461E081E00E944804AAC130E9E3166D
S113254033E0F30629F461E082E00E944804A0C16C
S1132550E11482E0F80629F462E081E00E94480474
S113256097C1E0E4EE16E2E0FE0629F462E082E0C0
S11325700E9448048DC1F0E2EF16F3E0FF0629F44F
S113258064E082E00E94480483C1E11438E0F30669
S113259029F461E083E00E9448047AC1E11489E0EF
S11325A0F80629F461E084E00E94480471C1E11452
S11325B0EAE0FE0629F461E085E00E94480468C16F
S11325C0E114FBE0FF0629F461E086E00E94480480
S11325D05FC130E4E31638E0F30629F462E083E0F7
S11325E00E94480455C180E4E81689E0F80629F4FD
S11325F062E084E00E9448044BC1E0E4EE16EAE0A5
S1132600FE0629F462E085E00E94480441C1F0E935
S1132610EF16F8E0FF0629F464E083E00E94480422
S113262037C130E9E31639E0F30629F464E084E0C5
S11326300E9448042DC180E9E8168AE0F80629F4CE
S113264064E085E00E94480423C1E0E9EE16EBE073
S1132650FE0629F464E086E00E94480419C1F0EC07
S1132660EF16F8E0FF0629F468E083E00E944804CE
S11326700FC130ECE31639E0F30629F468E084E096
S11326800E94480405C180EAE81688E0F80669F467
S113269060E183E00E944804E0EAF8E084818F7EF0
S11326A08483F8012481225053C0F0EAEF16F9E044
S11326B0FF0629F460E184E00E944804E9C030EA9E
S11326C0E3163AE0F30629F460E185E00E94480449
S11326D0DFC080EAE8168BE0F80629F460E186E0C2
S11326E00E944804D5C0E0EBEE16E8E0FE0629F4AB
S11326F060E283E00E944804CBC0F0EBEF16F9E0FF
S1132700FF0629F460E284E00E944804C1C030E876
S1132710E31634E0F30629F460E483E00E944804FD
S1132720B7C080EAE81684E0F80629F460E485E09E
S11327300E944804ADC0F70184818F7E8483FB012D
S113274024812250C701F0EAEF16F8E0FF0649F4AD
S113275080914E0684FDA5C00F2EF1E1DF2EF02DF1
S1132760A4C0803B38E0930791F0803AE9E09E07EB
S113277049F430916E0634FD9BC00F2EF9E1DF2E33
S1132780F02D16C0803BF9E09F07F1F004C00F2E36
S1132790F5E1DF2EF02D803A3AE0930749F4809179
S11327A08E0684FD8AC00F2EF1E2DF2EF02D15C0B7
S11327B0803A9B4091F48091AE0684FD0AC00F2EAE
S11327C0F9E2DF2EF02D09C00F2EFDE1DF2EF02DF2
S11327D004C00F2EFDE2DF2EF02DED2DE695E695DB
S11327E0E69530E2E39FF0011124FA5F3D2D377046
S11327F081E090E0032E02C0880F991F0A94E2F74B
S11328008183223010F040E001C040E4DF015096A3
S1132810A30FB11D9FB79983F89439812C91277028
S11328202C939C91942B9C933FBF8583F7018581C6
S1132830806C8583F80184818D7F813029F4F701D0
S113284085818260858304C0F70185818D7F8583BE
S1132850F8018581882329F0F701858184608583C7
S113286004C0F70185818B7F8583F8014081518104
S11328706281738100E814E82EE130E0C701F9DDDC
S1132880F7018481886084838481806184831AC091
S1132890F70184818F7E8483F80124812250C7014B
S11328A060CF0F2EF5E1DF2EF02D80EA98E06ACF9D
S11328B00F2EFDE1DF2EF02D7BCF0F2EF5E2DF2E64
S11328C0F02D8BCF0F90DF91CF911F910F91FF903F
S11328D0EF90DF90089504C0615071098109910956
S11328E06115710581059105B9F70895CF93DF93BB
S11328F01F92CDB7DEB78FB78983F8949981E0E052
S1132900F2E08081846080839FBF868180FFFDCF59
S1132910E0E0F2E081E0868384A195A10F90DF914D
S1132920CF910895E3DF809396229093972280912C
S1132930962290919722813A9F4020F081E08093E3
S11329404506089581E0809346060895E0E4F6E0A4
S113295080818160808381E08683089580E098E0AF
S1132960CBDC62E974E180E098E045DDE0E0F8E08A
S11329708181887F818380E197E286A397A3868102
S11329808C7F86838681836086838081807F81605B
S113299080830895CF93DF93CDB7DEB72B97CDBF58
S11329A0DEBF0E9438040E94540787E08093A2008F
S11329B0BE016F5F7F4F80E092E00E944F0AAE013C
S11329C0485F5F4F61E080E092E00E94D30A9A8101
S11329D08B818F7880618B8382E08D83892F817EC8
S11329E08A831C82BE016F5F7F4F80E092E00E9469
S11329F0E90981E088871986AE01485F5F4F61E08D
S1132A0080E092E00E94880A80E092E00E942D0813
S1132A109DDFA4DF78940E941A0580E180938506E7
S1132A2020E030E240E060E087E090E20E948E0621
S1132A300F2EF8E1EF2EF0E2FF2EF02D6894DD2446
S1132A40D7F808E912E280919622909197229F93F9
S1132A508F93FF92EF921F92DF921F930F9359D09F
S1132A6020E030E248E060E0C8010E948E068091D8
S1132A70962290919722CDBFDEBF813A9F4088F085
S1132A8020E030E240E160E081E290E20E948E06C4
S1132A9020E030E248E160E08BE290E20E948E06A2
S1132AA010C020E030E240E160E085E390E20E9463
S1132AB08E0620E030E248E160E08FE390E20E947D
S1132AC08E0666E372E880E090E005DFBCCFA1E209
S1132AD01A2EAA1BBB1BFD010DC0AA1FBB1FEE1F94
S1132AE0FF1FA217B307E407F50720F0A21BB30BDF
S1132AF0E40BF50B661F771F881F991F1A9469F75B
S1132B0060957095809590959B01AC01BD01CF01B6
S1132B1008950F931F93CF93DF93CDB7DEB72E970E
S1132B20CDBFDEBF0E891F89888D998D26E02C8349
S1132B3009831A8397FF02C080E090E801978D8390
S1132B409E83AE01445E5F4F6A8D7B8DCE010196FC
S1132B5016D04D815E8157FD0AC02F8138854217FA
S1132B6053070CF49A01F801E20FF31F10822E961A
S1132B70CDBFDEBFDF91CF911F910F9108952F92AA
S1132B803F924F925F926F927F928F929F92AF92F9
S1132B90BF92CF92DF92EF92FF920F931F93CF9346
S1132BA0DF93CDB7DEB72B97CDBFDEBF6C017B01C2
S1132BB08A01FC0116821782838181FFBFC1CE0185
S1132BC001963C01F6019381F70193FD859193FFF2
S1132BD081917F01882309F4ADC1853239F493FDD5
S1132BE0859193FF81917F01853221F4B60190E0B4
S1132BF0D3D1E8CF912C212C312CFFE1F315D8F05F
S1132C008B3279F038F4803279F08332A1F4232DB9
S1132C1020611DC08D3261F0803369F4232D216061
S1132C2016C0832D8260382EE32DE4603E2E2AC028
S1132C30F32DF8601DC037FC2DC020ED280F2A307D
S1132C4040F08E32B9F436FC75C1232D2064322E47
S1132C5019C036FE06C08AE0989E200D1124922EDB
S1132C6011C0EAE02E9E200D1124222EF32DF062D5
S1132C703F2E08C08C3621F4832D8068382E02C084
S1132C80883641F4F70193FD859193FF81917F018B
S1132C908111B3CF982F9F7D9554933028F40C5F06
S1132CA01F4F9FE399830DC0833631F0833771F052
S1132CB0833509F055C020C0F801808189830E5FF7
S1132CC01F4F88248394912C530112C02801F2E0F1
S1132CD04F0E511CF801A080B18036FE03C0692D4F
S1132CE070E002C06FEF7FEFC5014BD14C01820150
S1132CF0F32DFF773F2E15C0280122E0420E511C10
S1132D00F801A080B18036FE03C0692D70E002C0D6
S1132D106FEF7FEFC5012AD14C01F32DF0683F2EF0
S1132D20820133FC19C0822D90E088169906A0F424
S1132D30B60180E290E030D12A94F5CFF50137FC5A
S1132D40859137FE81915F01B60190E025D1211074
S1132D502A9421E0821A91088114910479F7E1C040
S1132D60843611F0893639F5F80137FE07C06081E1
S1132D707181828193810C5F1F4F08C060817181D2
S1132D80072E000C880B990B0E5F1F4FF32DFF7657
S1132D903F2E97FF09C090958095709561957F4F60
S1132DA08F4F9F4FF0683F2E2AE030E0A30130D1CF
S1132DB0882E861844C0853731F4232D2F7EB22EF9
S1132DC02AE030E025C0932D997FB92E8F36C1F0CB
S1132DD018F4883579F0AEC0803719F0883721F0BF
S1132DE0A9C0E92FE061BE2EB4FE0DC0FB2DF46036
S1132DF0BF2E09C034FE0AC0292F2660B22E06C099
S1132E0028E030E005C020E130E002C020E132E0FB
S1132E10F801B7FE07C060817181828193810C5FE4
S1132E201F4F06C06081718180E090E00E5F1F4FEC
S1132E30A301EED0882E8618FB2DFF773F2E36FE99
S1132E400DC0232D2E7FA22E891458F434FE0BC0FE
S1132E5032FC09C0832D8E7EA82E05C0B82CA32C6D
S1132E6003C0B82C01C0B92CA4FE0FC0FE01E80DAC
S1132E70F11D8081803321F49A2D997EA92E09C0F9
S1132E80A2FE06C0B394B39404C08A2D867809F0D8
S1132E90B394A3FC10C0A0FE06C0B21480F4280CA6
S1132EA0922C9B180DC0B21458F4B60180E290E045
S1132EB073D0B394F8CFB21418F42B1802C0982C22
S1132EC0212CA4FE0FC0B60180E390E065D0A2FEE1
S1132ED016C0A1FC03C088E790E002C088E590E03A
S1132EE0B6010CC08A2D867851F0A1FE02C08BE297
S1132EF001C080E2A7FC8DE2B60190E04DD08914B8
S1132F0030F4B60180E390E047D09A94F8CF8A94E5
S1132F10F301E80DF11D8081B60190E03DD08110F0
S1132F20F6CF222009F44ECEB60180E290E034D0F0
S1132F302A94F7CFF6018681978102C08FEF9FEF25
S1132F402B96CDBFDEBFDF91CF911F910F91FF90E4
S1132F50EF90DF90CF90BF90AF909F908F907F9035
S1132F606F905F904F903F902F900895FC010590D3
S1132F70615070400110D8F7809590958E0F9F1F77
S1132F800895FC016150704001900110D8F78095BC
S1132F9090958E0F9F1F08950F931F93CF93DF93E8
S1132FA0FB01238121FD03C08FEF9FEF2CC022FF83
S1132FB016C046815781248135814217530744F452
S1132FC0A081B1819D012F5F3F4F208331838C937A
S1132FD0268137812F5F3F4F2683378314C08B01AF
S1132FE0EC01FB010084F185E02D1995892BE1F6B4
S1132FF0D80116968D919C911797019616968D93EC
S11330009C931797CE01DF91CF911F910F91089553
S1133010FA01AA27283051F1203181F1E8946F9305
S11330206E7F6E5F7F4F8F4F9F4FAF4FB1E03ED0AB
S1133030B4E03CD0670F781F891F9A1FA11D680F49
S1133040791F8A1F911DA11D6A0F711D811D911D7C
S1133050A11D20D009F468943F912AE0269F1124F1
S11330603019305D3193DEF6CF010895462F477055
S1133070405D4193B3E00FD0C9F7F6CF462F4F70B0
S1133080405D4A3318F0495D31FD4052419302D00E
S1133090A9F7EACFB4E0A6959795879577956795B4
S11330A0BA95C9F700976105710508959B01AC01B4
S11330B00A2E06945795479537952795BA95C9F7DB
S11330C0620F731F841F951FA01D0895F894FFCFEE
S11330D000FC010607207D4C4452204C616D702099
S11330E0436F6E74726F6C004144433A202534641C
S11330F0004C44523A2048494748004C616D703AAC
S1133100204F4E20004C44523A204C4F5720004C44
S10D3110616D703A204F464600003E
S9030000FC
